:020000040800F2
:10000000B806002031020008BD0A0008BF0A000837
:10001000C10A0008C30A0008C50A00080000000061
:10002000000000000000000000000000C70A0008F7
:10003000C90A000800000000CB0A0008CF0A000827
:100040004B0200084B0200084B0200084B0200085C
:100050004B0200084B0200089F060008B706000884
:10006000CF060008E7060008FF0600084B0200085C
:100070004B0200084B0200084B0200084B0200082C
:100080004B0200084B0200084B0200084B0200081C
:100090004B0200084B0200084B020008170700083B
:1000A0004B0200084B0200084B0200084B020008FC
:1000B0004B0200084B0200084B0200084B020008EC
:1000C0004B0200084B0200084B0200084B020008DC
:1000D0004B0200084B0200084B0200084B020008CC
:1000E000690700084B0200084B0200084B02000899
:1000F0004B0200084B0200084B0200084B020008AC
:100100004B0200084B0200084B0200084B0200089B
:100110004B0200084B0200084B0200084B0200088B
:100120004B0200084B0200084B0200084B0200087B
:100130004B0200084B0200084B0200084B0200086B
:100140004B0200084B0200084B0200084B0200085B
:100150004B0200084B0200084B0200084B0200084B
:100160004B0200084B0200084B0200084B0200083B
:100170004B0200084B0200084B0200084B0200082B
:100180004B0200084B02000800F002F800F040F8B3
:100190000AA090E8000C82448344AAF10107DA45E2
:1001A00001D100F035F8AFF2090EBAE80F0013F0F4
:1001B000010F18BFFB1A43F0010318474C0D000054
:1001C0006C0D0000103A24BF78C878C1FAD85207E5
:1001D00024BF30C830C144BF04680C6070470000C1
:1001E0000023002400250026103A28BF78C1FBD840
:1001F000520728BF30C148BF0B6070471FB500F0E1
:100200007DFE9DE8030000F09BFD1FBD10B510BDF5
:1002100000F0F2FD1146FFF7F1FF00F02DFC00F0B9
:1002200010FE03B4FFF7F2FF03BC00F041FE000034
:100230000948804709480047FEE7FEE7FEE7FEE77A
:10024000FEE7FEE7FEE7FEE7FEE7FEE704480549B6
:10025000054A064B704700007B0B00088901000827
:10026000B8000020B8060020B8020020B802002024
:100270002849084328490860704730B50F23C278E1
:1002800001780125FAB1244A126801F1E02102F453
:10029000E062C2F5E062C2F30722C2F10404D34077
:1002A0004278A24084781C401443220181F8002443
:1002B000007800F01F018D404009800000F1E0202F
:1002C000C0F8005130BD01F01F0085404809800092
:1002D00000F1E020C0F8805130BD104A11400143C8
:1002E0000D48001F016070470B4A121D002911685C
:1002F00001D0014300E08143116070474FF0E021DD
:100300000428086903D020F004000861704740F019
:100310000400FAE70000FA050CED00E080FFFF1F83
:1003200070B55A484168491C4160816811B18168C3
:10033000491E8160AFF300800024554E18E006EBA3
:100340008405686890B1017B81B1826872B1521EE8
:10035000826069680AD148690969884768680168E4
:1003600081606868416809B900210173641CE4B2C6
:100370003078A042E3D870BD464801684FF47A70E7
:10038000B1FBF0F0401EB0F1807F12D24FF0E022BE
:100390005061414BF02083F8140D0020906107203C
:1003A00010613E48B1FBF0F13848C1600121017095
:1003B0007047FEE735480078002805D04FF0E02070
:1003C000016941F00201016170474FF0E0200169CD
:1003D00021F00201016170472DE9F0472C4C0546E0
:1003E000DDF8209020781E4617468846052802D35F
:1003F0000020BDE8F087182000F02CFC0028F8D081
:100400000560C0E901850773C0E90469217804EB40
:10041000810148602178491C2170EAE71C4B30B407
:1004200000211A7806E003EB81046468844203D05B
:10043000491CC9B28A42F6D88A4218D003EB81001F
:100440004068EFF3108472B605E003EB8102491CAB
:100450009568C9B255601A78521E8A42F5DC19783F
:10046000491E197004B962B630BC00F022BC30BC21
:1004700070470021017370470121017370470168C3
:100480008160704741607047016070470000002044
:1004900024000020100000200FE000E0C0C62D0066
:1004A0002DE9FE4F164683460C004FF0010A02D09C
:1004B000601E014212D00025574607FA05F020427F
:1004C00005D081B232465846FFF7EAFFB8BB6D1C33
:1004D000EDB2102DF1D30020BDE8FE8FDFF8F082E1
:1004E000D8F80000204234D108F10409D9F80000FE
:1004F00020422ED1B4F5807F37D012DC102C32D0C0
:1005000008DC012C27D0022C27D0042C27D0082C63
:100510001FD126E0202C28D0402C26D0802C18D1AA
:1005200023E0B4F5805F22D00ADCB4F5007F1CD054
:10053000B4F5806F1BD0B4F5006F0AD117E008E066
:10054000B4F5005F13D0B4F5804F10D0B4F5004F70
:100550000DD00120C0E706250AE0072508E00825A0
:1005600006E0092504E00A2502E0172500E0282519
:10057000012E51D0F6B300200021CDE900010B4639
:100580000A462146584600F079F9204600F04AFA1A
:10059000C7B2584600F022F9C2B28E48016841F451
:1005A000804101608C4827F003010844D0F80838E6
:1005B000B907090F4FF00F0C0CFA01FC23EA0C03EA
:1005C000C0F80838D0F808388A401343C0F8083813
:1005D000D8F80010A143C8F80010D9F80020A243B1
:1005E000C9F80020D8F800102143C8F80010784856
:1005F0000C3000E012E00168A1430160011F0A68AD
:10060000A2430A60012E0BD016B102682243026099
:1006100008682043086006E00120ADE70220ABE750
:100620000168214301608DF808500A208DF8090007
:100630008DF80A708DF80BA002A8FFF71EFE4AE79E
:1006400063490A6882430A60091D0A6882430A6096
:100650005F490C310A6882430A60091F0A688243B5
:100660000A60002070475A4801686FF30F0101606B
:10067000001D01686FF30F01016055480C300168DF
:100680006FF30F010160001F01686FF30F0101603C
:100690004F48143001686FF30F01016070474C48F8
:1006A00010B514300168C90704D001210160084663
:1006B000AFF3008010BD464810B5143001688907BB
:1006C00004D5022101600846AFF3008010BD404808
:1006D00010B514300168490704D5042101600846AB
:1006E000AFF3008010BD3A4810B514300168090717
:1006F00004D5082101600846AFF3008010BD3448DE
:1007000010B514300168C90604D5102101600846EF
:10071000AFF3008010BD10B52D4C14342068800656
:1007200003D520202060AFF300802068400603D569
:1007300040202060AFF300802068000603D58020B1
:100740002060AFF300802068C00504D54FF48070AE
:100750002060AFF300802068800504D54FF400705E
:100760002060AFF3008010BD10B5194C1434206820
:10077000400503D520152060AFF3008020680005F8
:1007800004D54FF400602060AFF300802068C004FF
:1007900004D54FF480502060AFF3008020688004BF
:1007A00004D54FF400502060AFF30080206840046F
:1007B00004D54FF480402060AFF30080206800042F
:1007C00004D54FF400402060AFF3008010BD00005E
:1007D000003C01404438024000300140A349084435
:1007E000C0F38F2070472DE9F04F9A46DDE909B834
:1007F00089460346FFF7F2FFC5B200204FF0030E13
:100800000121814011EA090F28D0994E36F8154090
:100810000C4326F81540DF6844000EFA04F6B7438F
:100820000BFA04FC47EA0C07DF601F6802FA04FCBD
:10083000B74347EA0C071F60012A01D0022A0DD1F5
:100840005F6889B28F430AFA00F189B20F435F6093
:10085000996808FA04F4B14321439960401CC0B27E
:100860001028CDD3BDE8F08F00B5FFF7B7FF012109
:100870008140804802681143016000BDFCB5164606
:10088000DDE907C50C00074608D0FFF7EDFFCDE90D
:1008900000C5324621463846FFF7A5FFFCBD2DE9CD
:1008A000FC4F9946DDE90BB792460D00064622D073
:1008B000FFF7DAFF002201214FF00F0C01FA02F0DE
:1008C00028420DD0D00806EB8003186A5407E40EC6
:1008D0000CFA04F820EA080007FA04F4204318622E
:1008E000521C102AEAD3CDE9009B53460222294626
:1008F0003046FFF778FFBDE8FC8FF0B50E460546A1
:10090000FFF76CFF00225A49C4B24FF0010C0327D5
:100910000CFA02F333420CD028684FEA420E07FA71
:100920000EFE40EA0E00286031F81400984321F8CA
:100930001400521CD2B2102AEAD3F0BDF0B5002246
:100940000125032605FA02F30B4205D0046857007F
:1009500006FA07F39C430460521CD2B2102AF1D36A
:10096000F0BDF0B500220127032607FA02F33C464A
:100970000B4208D00568530006FA03FC25EA0C0573
:100980009C4025430560521CD2B2102AEDD3F0BD25
:10099000F0B500220125032605FA02F30B4205D02B
:1009A0000468570006FA07F31C430460521CD2B2D5
:1009B000102AF1D3F0BDF0B500220126032402274E
:1009C00006FA02F30B4209D00568530004FA03FC4F
:1009D00025EA0C0507FA03F31D430560521CD2B249
:1009E000102AEDD3F0BDF0B500230127032507FA47
:1009F00003F40C4209D0C6685C0005FA04FC26EA40
:100A00000C0602FA04F42643C6605B1CDBB2102B12
:100A1000EDD3F0BD41F48032C261C161C261C169F0
:100A2000C0697047002102E0491C89B240080128D2
:100A3000FAD80846704700B5FFF7D0FE0121814083
:100A40000C4802688A43026000BD00B5FFF7C6FE8D
:100A5000074931F8100000BD00B5FFF7BFFE04499B
:100A600031F81000C04380B200BD00000000FEBF9E
:100A70003C000020303802400E48016841F0080177
:100A800001600D48016841F0010101600A48083029
:100A9000016841F001010160001F01680160064822
:100AA0000C30016801600449012018318A1C08805B
:100AB0001080FCE730380240000C02407047FEE72F
:100AC000FEE7FEE7FEE7704770477047704710B5D6
:100AD000FFF726FC10BD00000CB50022544900921F
:100AE0000192086840F4803008604FF4A043086821
:100AF00000F4003001900098401C0090019810B95B
:100B000000989842F3D10868800334D50120019001
:100B100047484030026842F080520260454802680F
:100B200042F44042026042480830026802600268B3
:100B300042F400420260026842F4A0520260031FC5
:100B40003D4A1A600A6842F080720A600A6892019F
:100B5000FCD53A4940F205720A60016821F00301B0
:100B60000160016841F0020101600168C1F3810187
:100B70000229FAD10CBD01920CBD314810B50168B3
:100B800041F4700101602A48016841F001010160EF
:100B9000274A00210832116002682A4B1A4002607D
:100BA000031D294A1A60026822F48022026020484C
:100BB0000C300160FFF790FF21494FF00060803951
:100BC000086010BD70B51A4D083528681F4B2049C4
:100BD00010F00C0004D05E10042803D0082803D0C5
:100BE0000B601BE00E6019E0114A121D1068C0F383
:100BF0008054106800F03F0014B1B6FBF0F001E043
:100C0000B3FBF0F013681268C3F388135843C2F3C0
:100C10000142521C5200B0FBF2F0086028680C4AF6
:100C2000C0F30310121D105C0A68C2400A6070BD58
:100C3000003802400070004008544007003C024069
:100C400088ED00E0FFFFF6FE103000240024F400E1
:100C50001000002070B5064600F056F8056806F151
:100C60000B0020F00704B4429CBF002070BD2B464F
:100C70006A68BAB11068A04210D304F10801884232
:100C80003CBF5068586007D3516810194160116823
:100C9000091B016058601460101D70BD1346526836
:100CA000002AE7D12146284600F036F80028DED198
:100CB00070BD70B50446051F00F026F80068002CD2
:100CC00014BF446870BD002C18BFAC423CBF204626
:100CD0006468F8D301680A18AA4218BF456003D1B6
:100CE0002A6805461144016028684119A1421CBFC9
:100CF0006C6070BD6168696021680844286070BDDF
:100D00007047704770470000004870475C00002043
:100D1000704770477047704738B504460A46002050
:100D20006946AFF30080002808BF38BD024600992D
:100D3000204600F03FF8012038BD012000F054B8F3
:100D4000F8B5AFF30080054600200C46102000BF28
:100D50000646A819A0420DD9324669460020AFF3D5
:100D60000080070008BF00F03FF80098A04218BFBD
:100D70000546C419FFF7C8FF05600746F01D20F0BF
:100D800007004619284600F00AF8B44208BFF8BD2B
:100D9000A21B31463868BDE8F84000F00BB80021CE
:100DA0000160C0E90110704710207047004870478B
:100DB00054000020034640688C46002818BF884233
:100DC0003CBF03464068F8D318681844884207D0EF
:100DD0000CF1030020F00700001D411A521A0146D1
:100DE000081D0A60FFF765BF10B500F039F8BDE8CF
:100DF000104000F02FB870477546FFF7D7FFAE469A
:100E000005006946534620F00700854618B020B516
:100E1000FFF71CFABDE820404FF000064FF0000736
:100E20004FF000084FF0000B21F00701AC46ACE892
:100E3000C009ACE8C009ACE8C009ACE8C0098D46FF
:100E4000704710B50446AFF300802046BDE810405F
:100E5000FFF7E7B9002801D000F02AB8704700007A
:100E600010B5012805D0002103A000F027F80120CB
:100E700010BD09A1F8E7000053494752544D454DB4
:100E80003A204F7574206F662068656170206D652B
:100E90006D6F7279000000003A2048656170206D26
:100EA000656D6F727920636F72727570746564001E
:100EB00001491820ABBEFEE72600020070B50546CA
:100EC0000C460A2000E06D1C00F011F835B12878BE
:100ED0000028F8D102E0641C00F009F814B1207871
:100EE0000028F8D1BDE870400A20AFF3008008B5B3
:100EF00069468DF800000320ABBE08BD4FF040707E
:100F0000E1EE100A70470000280F000800000020E2
:100F100024000000C40100084C0F00082400002039
:100F200094060000E001000800000000000000003E
:100F30000000000000000000007A030A000000002A
:0C0F40000000000001020304060708097D
:040000050800018965
:00000001FF
